:020000040001F9
:10800000E03C0020358101004F81010051810100D9
:108010000000000000000000000000000000000060
:10802000000000000000000000000000538101007B
:108030000000000000000000558101005781010090
:1080400059810100598101005981010059810100C4
:1080500059810100000000000582010059810100E2
:1080600059810100598101005981010059810100A4
:108070005981010059810100598101005981010094
:10808000598101000D8401005981010059810100CD
:1080900035840100598101003D84010059810100AE
:1080A000598101005981010000000000000000001A
:1080B00000000000000000000000000000000000C0
:1080C0000348854600F08CF80048004709A20100EB
:1080D000E03C0020401E00BF00BF00BF00BF00BF4B
:1080E00000BF00BF00BF00BF00BF00BF00BFF1D195
:1080F00070470000401E00BF00BF00BF00BF00BFB0
:1081000000BF00BF00BF00BF00BF00BF00BFF1D174
:1081100070470000401E00BF00BF00BF00BF00BF8F
:1081200000BF00BF00BF00BF00BF00BF00BFF1D154
:10813000704700000321094802680A4302600848AA
:1081400002680A4302600748804707480047FEE785
:10815000FEE7FEE7FEE7FEE7FEE70000240500403D
:1081600054050040AD840100C180010030B50B46CC
:10817000014600202022012409E00D46D5409D4201
:1081800005D31D469540491B254695404019154687
:10819000521E002DF1DC30BD03460B439B0703D07C
:1081A00009E008C9121F08C0042AFAD203E00B78BC
:1081B0000370401C491C521EF9D27047D2B201E034
:1081C0000270401C491EFBD270470022F6E710B532
:1081D00013460A4604461946FFF7F0FF204610BD35
:1081E000064C0125064E05E0E36807CC2B430C3C0A
:1081F00098471034B442F7D3FFF766FF38B7010051
:1082000058B70100F0B585B0304805690020304905
:10821000C863002654E0142070432E4909684418AE
:108220000120B0402C4909680840002846D00020B1
:1082300002900190E068C0436840216808400390C4
:108240002046039902F069FD2048006968402168D2
:10825000084004900498002818D0049868400090C2
:10826000E068C04300994840216808400746394605
:10827000204602F052FDA0680099884338400190E2
:108280006068009908403840029000BFA068A84389
:1082900003990840019908430190606828400399B8
:1082A0000840029908430290019902980843002867
:1082B00003D0226901990298904700BF701CC6B292
:1082C000064800788642A6DB05B0F0BD00050050E8
:1082D0004061004080200020782000207D20002088
:1082E000C206D20E01219140014A11607047000080
:1082F00080E200E0C206D20E01219140014A1160E5
:108300007047000000E100E0C206D20E012191405A
:10831000014A11607047000000E200E010B500283B
:1083200019DA1A4A03071B0F083B9B089B00D25817
:108330008307DC0EFF23A3409A438B071B0E8407A1
:10834000E40EA3401A43114B0407240F083CA40871
:10835000A4001A5118E00E4A03231B02D218830806
:108360009B00D2588307DC0EFF23A3409A438B0760
:108370001B0E8407E40EA3401A43054B032424027A
:108380001B198408A4001A5110BD00001CED00E068
:1083900000E100E010B5002819DA1A4A03071B0FA4
:1083A000083B9B089B00D2588307DC0EFF23A340A9
:1083B0009A438B071B0E8407E40EA3401A43114B0C
:1083C0000407240F083CA408A4001A5118E00E4A20
:1083D00003231B02D21883089B00D2588307DC0EAC
:1083E000FF23A3409A438B071B0E8407E40EA34090
:1083F0001A43054B032424021B198408A4001A51B4
:1084000010BD00001CED00E000E100E010B5002010
:10841000074908600021064841608160C160002072
:10842000034940390860486002F06AFF10BD00004F
:108430004011014010B502F013FE10BD70B50C489C
:108440000068002811D00A4800688047044600BF31
:108450002546002D07D000BF06A2FF212A3128465D
:1084600000F06CF900BF00BF01E001F0F7FC70BD47
:10847000B02000205254455C6E52465F536F6674C4
:108480004465766963655C6E524635313832325FD9
:10849000787841415C736F66746465766963655F83
:1084A00068616E646C65722E6300000010B501F0A7
:1084B0007DFD002805D0074807494860C8130749D3
:1084C000886101F057FD002802D00120044988602E
:1084D00010BD0000DFFF07C000050040006C004039
:1084E0000006004030B47446641E2578641CAB421C
:1084F00004D3635D5B00E31830BC18471D46F8E702
:1085000002E008C8121F08C1002AFAD1704770475C
:10851000002001E001C1121F002AFBD17047F8B50D
:1085200004460F46154600260020287020780028B3
:1085300009D02A463946204601F0D5FF0646002ECE
:1085400001D03046F8BDA078002808D0294638462A
:1085500000F05CFA0646002E01D03046F2E7E078E3
:1085600000280ED002212A78501C2870B95401210D
:108570002A78501C2870B954E1782A78501C287049
:10858000B954606800280BD00020616808562A465C
:10859000394602F077FF0646002E01D03046D1E77B
:1085A000208900280CDD3B460622022120460830A7
:1085B000009503F000F80646002E01D03046C1E7D2
:1085C000208A00280CDD3B4607220321204610307C
:1085D000009502F0F0FF0646002E01D03046B1E7CC
:1085E000208B00280CDD3B46152214212046183034
:1085F000009502F0E0FF0646002E01D03046A1E7CC
:10860000206A002809D02A463946206A00F060FF17
:108610000646002E01D0304694E7606A002809D053
:108620002A463946606A01F029FF0646002E01D02D
:10863000304687E72C20005D002809DD2A463946B0
:10864000204602F0AAFB0646002E01D0304679E70C
:10865000304677E70146C87804221040002801D14F
:10866000072070470020FCE770B59AB00626164830
:1086700000680190154801786846817130210EA884
:10868000FFF7A3FD022108A8017600218176C676B6
:10869000302102A8FFF799FD01216846018301A955
:1086A000079102A90EA800F007FA044600BF25466C
:1086B000002D06D000BF06A2B021284600F03EF8EB
:1086C00000BF00BF1AB070BDF4B60100C820002082
:1086D0002E2E5C2E2E5C6D61696E2E6300000000F4
:1086E00030B587B0182101A8FFF76FFD002168465B
:1086F000017100200290684601730B4981820021BC
:10870000C18201A873DF044600BF2546002D07D0B3
:1087100000BF06A2FF213E31284600F00FF800BF3F
:1087200000BF07B030BD0000881300002E2E5C2E65
:108730002E5C6D61696E2E630000000006460C46DB
:1087400015460C2000F0BAFB04480660044804609B
:108750000448056072B600BFFEE700006C200020F0
:10876000702000207420002070B505460C46002CB7
:1087700001D1072070BD20468107890F002901D152
:10878000012100E00021002901D10720F2E7134870
:1087900004601348057000201249087012490860EF
:1087A0000F4800781422504301460C480068FFF738
:1087B0000CFD0020C0430D49886006200121814046
:1087C0000B4A116000BF0121FFF7A8FD062001211F
:1087D0008140084A116000BF0020CBE780200020C4
:1087E0007C2000207D2000207820002000630040B5
:1087F00080E200E000E100E070B503460C46194855
:108800000068002801D1082070BD002A01D107208E
:10881000FAE7002B01D10720F6E700211CE0242015
:108820004843104D2D68285C002814D101252420D0
:1088300048430C4E3668355424204843094D2D6872
:108840004019447024204843064D2D684019826128
:1088500019600020D8E7491C034800788142DEDB1C
:108860000420D1E78820002084200020FFB581B0BB
:108870000E4617461C4620468107890F002901D164
:10888000012100E00021002902D1072005B0F0BD40
:10889000002C01D10720F9E702F002F926490A98D5
:1088A0000860264806702648046000250CE0002178
:1088B00024206843224A1268115424206843204A25
:1088C0001268801801756D1CB542F0DB24207043DE
:1088D000041903201B4908701B4804601834002544
:1088E0000CE0E900184A12688818002101704170F4
:1088F00087704460182179430C196D1C032DF0DB3F
:108900000020C04311490860002011490870114936
:1089100008701420FFF7E4FC03211420FFF73AFD50
:108920001420FFF7E7FC019802F090F802F088F8B5
:10893000094908600020A9E7A82000208420002021
:10894000882000208C2000209020002094200020EF
:10895000A4200020A520002098200020FEB5044679
:108960000D46164616480068002801D10820FEBDB5
:1089700014480078844201D2052D01D20720F6E781
:10898000242060430E490968085C012801D00820B2
:10899000EDE7242060430A4909684018407801281F
:1089A00001D1284600E00020074602F0DBFD3B46EF
:1089B0002A4621460096019002F058FCD7E70000B5
:1089C000882000208420002070B504460D480068EF
:1089D000002801D1082070BD0B480078844201D3E3
:1089E0000720F8E72420604306490968085C01284D
:1089F00001D00820EFE702F0B5FD0546214602F060
:108A00005FFCE8E78820002084200020F8B50546B8
:108A10000C462078001D1F2801DD0C20F8BD68469B
:108A200079DF0646002E01D03046F7E70321227891
:108A3000501C2070A95419212278501C2070A95470
:108A4000207841196846008802F034FD21784018EA
:108A500020700020E2E7000010B500220123124C34
:108A60006360030208242343104C63600023104C0E
:108A7000236001230D4C236000230D4C2360012350
:108A80000C4C2360002101E04B1CD9B2084B1B6841
:108A9000002B01D1FF29F7DB0123064C6360002383
:108AA000024C236010BD00000073004000750040C0
:108AB0000071004000700040F3B593B00D460021F6
:108AC000129111911398002814D01398FFF7C2FD4A
:108AD0000446002C02D0204615B0F0BD12AA09A908
:108AE0001398FFF71CFD0446002C01D02046F3E745
:108AF00009AE00E00026002D13D0284602F06CFAE3
:108B00000446002C01D02046E6E711AA01A9284618
:108B1000FFF705FD0446002C01D02046DCE701AF3D
:108B200000E0002710A803793A46017A304672DF48
:108B3000D2E7000070B505461C2229461448FFF70D
:108B40002BFB002013490870286800280BD008224E
:108B500011482968FFF720FB0F487ADF0446002CF4
:108B600008D0204670BD0C487BDF0446002C01D0A5
:108B70002046F7E70020C043084908800020084944
:108B80000870084A00210848FFF736FEEAE70000AF
:108B9000C034002068200020502000205A200020EF
:108BA00058200020C9B401006420002010B50446FC
:108BB0002088102806D0112808D012280ED050285E
:108BC00010D107E0204601F085FE0CE0204601F0C0
:108BD000A3FE08E0204601F0EBFE04E0204601F091
:108BE00069FE00E000BF00BF10BD000010B50446E4
:108BF0002046FFF7DBFF2146034800F049F82046F6
:108C000001F052FD10BD0000C820002070B586B0F4
:108C100004460E461D4B0FCB01AD0FC5002C01D0F5
:108C2000002E02D10E2006B070BD0020C043A082ED
:108C30003068A0610020A075214601A863DF0546C9
:108C4000002D01D02846EEE7217868468175012184
:108C50008182A21C05A90120A0DF0546002D01D0BC
:108C60002846E0E73146204601F046FF0546002D44
:108C700001D02846D7E73146204602F094FB05464E
:108C8000002D01D02846CEE70020CCE728B7010010
:108C900070B505460C46002D01D0002C00D170BDEA
:108CA0002088102804D0112807D050280FD109E0BF
:108CB0002146284601F00AFE0AE02146284601F036
:108CC00027FE05E02146284601F048FE00E000BFEF
:108CD00000BF00BFE3E7000037B584B004460D468F
:108CE000002C02D10E2007B030BDA08A0F49884267
:108CF00002D0A07D002801D10820F4E76846008B4F
:108D0000142801DD0720EEE700200090019002907A
:108D10000390A18968460180039506A8029001216D
:108D200068468170A08A6946A6DFDCE7FFFF000085
:108D30007CB500BF002348221C49082002F018F926
:108D4000054600BF2E46002E07D000BF18A2FF2107
:108D5000BE313046FFF7F2FC00BF00BF00BF00206D
:108D60000090019069460870684660DF044600BFC5
:108D70002546002D07D000BF0DA2FF21C531284692
:108D8000FFF7DCFC00BF00BF0D4802F0E5F8044629
:108D900000BF2546002D07D000BF05A2FF21C93125
:108DA0002846FFF7CBFC00BF00BF7CBDFC31002094
:108DB0002E2E5C2E2E5C6D61696E2E63000000000D
:108DC000ED8B0100F8B505460E4600270024012E64
:108DD00016D10C480068002812D000E0641C042C56
:108DE00004D2A00008490858A842F7D1042C01D2A7
:108DF0000648075D002F03D03846024909688847B6
:108E0000F8BD000044200020F8B6010048200020F2
:108E100030B5034600224AE09000274C215801203B
:108E200090401840002822D0052000070724240283
:108E300000198C00005903242404A04305242407AE
:108E400007252D0264198D006051052000070724B5
:108E5000240200198C000059032424042043052413
:108E6000240707252D0264198D0060511EE005209E
:108E700000070724240200198C000059032424044D
:108E8000A0430524240707252D0264198D00605195
:108E9000052000070724240200198C00005905242E
:108EA000240707252D0264198D006051521C042AE5
:108EB000B2D3002030BD0000F8B6010070B5044602
:108EC000002506480078C007C00F002803D02046C0
:108ED00000F006F80546284670BD00003820002046
:108EE000F8B50446002500262300FFF7FBFA180D0D
:108EF00018195C9FF7F5F4F3F2F1F0EFEEEDECEBFF
:108F0000EAE9E8E7E6E5E4E300BF0B204005FB49BA
:108F100088600020C86000BFF94804704FE200BFBD
:108F200000BF05208005F54988600020C86000BFAB
:108F3000084640680F21490548400121490508407D
:108F400000280FD000BF0846EC4988600020C860A8
:108F500000BF022C02D1E120C00001E07D204001D1
:108F600006460EE000BF01204005E449C86000202D
:108F7000886000BF022C01D1C82001E0FF209130A1
:108F80000646DF48047064213046FFF7EFF8DD49FC
:108F900009684843074600223946DB480068FFF766
:108FA000DDFC05460BE200BF05208005D349886043
:108FB0000020C86000BF084640680F2149054840AE
:108FC00001214905084000280FD000BF0846CB49C1
:108FD00088600020C86000BF032C02D11920400126
:108FE00001E07D20400106460EE000BF0120400563
:108FF000C249C8600020886000BF032C01D1C8208E
:1090000001E0FF2091300646BD48047064213046DF
:10901000FFF7ACF8BB4909684843074600223946C8
:10902000B9480068FFF79AFC0546C8E100BF052073
:109030008005B24988600020C86000BF08464068CB
:109040000F214905484001214905084000280FD05B
:1090500000BF0846A94988600020C86000BF042CF2
:1090600002D17D20400101E07D20400106460FE055
:1090700000BF01204005A149C8600020886000BFF2
:10908000042C02D1FF20913001E0FF2091300646F0
:109090009B48047064213046FFF768F899490968D5
:1090A000484307460022394697480068FFF756FCB8
:1090B000054684E182E176E174E161E14EE13BE164
:1090C0002FE1F4E0F2E0F0E0EEE0ECE0E2E0C9E015
:1090D000B2E099E082E06FE042E0FFE700BF0520E8
:1090E0008005864988600020C86000BF0846406847
:1090F0000F214905484001214905084000280ED0AC
:1091000000BF08467D4988600020C86000BF052C6C
:1091100001D1C82001E07D20400106460EE000BFDD
:10912000012040057549C8600020886000BF052CFB
:1091300001D1C82001E0FF2091300646704804703C
:1091400064213046FFF712F86E4909684843074624
:10915000002239466C480068FFF700FC05462EE106
:1091600000BF05208005654988600020C86000BFF9
:10917000084640680F21490548400121490508403B
:10918000002806D000BF08465C4988600020C860FF
:1091900007E000BF012040055849C86000208860F2
:1091A00000BF5748047057480022016856480068BD
:1091B000FFF7D4FB054602E100BF052080054F49BB
:1091C00088600020C86000BF00BF01204005C86063
:1091D0000020886000BF4A480470F0E000BF4749A3
:1091E0004868012189058143444A9160012189052C
:1091F0000140D16000BF4348002201684248006836
:10920000FFF7ACFB0546DAE000BF3C4948680121A6
:1092100089058143394A9160012189050140D16066
:1092200000BF384800688200811800223648006874
:10923000FFF794FB0546C2E000BF304948680121B2
:10924000890581432D4A9160012189050140D16042
:1092500000BF2C48002201682B480068FFF77EFB06
:109260000546ACE000BF25494868012189058143D6
:10927000224A9160012189050140D16000BF214847
:1092800000688200811800221F480068FFF766FB13
:10929000054694E000BF0F2040051849C860002033
:1092A000886000BF8BE000BF00BF00BF00BF174851
:1092B0000068FFF789FB05461120061B002E27D00A
:1092C000002D25D1012E10D9C821714308466421F3
:1092D000FEF74CFF0B490968484307460022394610
:1092E0000A480068FFF73AFB054600BF0120C005A9
:1092F0000249C8600020886012E0000000050050AC
:1093000030200020342000203C200020402000207D
:1093100000BF0120C0052B4988600020C86000BF45
:109320004DE000BF0F204005264988600020C8603E
:1093300000BF2548047042E000BF07208005214996
:1093400088600020C86000BF00BF01204005C860E1
:109350000020886000BF1C48047030E000BF0D2072
:109360004005184988600020C86000BF00BF012088
:109370008005C8600020886000BF134804701EE0AC
:1093800000BF0320C0050F4988600020C86000BFEF
:1093900000BF03204005C8600020886000BF0A4865
:1093A00004700CE000BF00BF0F2040050549C860F5
:1093B0000020886000BF0448047000E000BF00BFC8
:1093C0002846F8BD00050050302000200007000F9F
:1093D0000A2803DA01463031C8B202E001463731CB
:1093E000C8B27047FEB51E480068401C002834D043
:1093F0001B480068242148431A49096840184568F9
:1094000001F01EFB0190184804682146019801F004
:10941000EBFDC61C15480078002801D101F022FBA5
:10942000AE4201D2284600E0304604192402240A44
:1094300020460F49086000BF01F002FB009001992F
:10944000009801F0D1FDC71C2046019901F0CCFD28
:10945000874201D901F0A2FF01E001F021FBFEBD2E
:10946000942000208820002098200020AC2000209C
:109470004015014001460888062808DB08881922A3
:10948000D201904205DD0888104A904201D00720A1
:1094900070474888062808DB48881922D201904284
:1094A00005DD4888094A904201D00720F0E7088886
:1094B000064A904208D04888904205D008884A88D9
:1094C000904201DD0720E3E70020E1E7FFFF000015
:1094D000F8B506460D4614462078801D1F2801D990
:1094E0000C20F8BD3046FFF7C5FF0746002F01D01E
:1094F0003846F6E705212278501C2070A954122125
:109500002278501C2070A95422785119308801F01B
:10951000D1FF21784018207022785119708801F00D
:10952000C9FF2178401820700020DAE710B5044602
:1095300000BF04A2FF2112312046FFF7FFF800BF51
:1095400010BD00002E2E5C2E2E5C6D61696E2E63A8
:109550000000000030B587B01C216846FEF735FEDC
:10956000002000900520C00301900F20000402900D
:109570000321684601730021C18101740B480590E5
:109580000B4806906846FFF7D5FA044600BF25460B
:10959000002D07D000BF07A2FF2129312846FFF781
:1095A000CDF800BF00BF07B030BD000071A80100BA
:1095B0002D9501002E2E5C2E2E5C6D61696E2E6342
:1095C0000000000038B51F4800F0C2FC002829D177
:1095D0001D48007800280AD01C484069002820D087
:1095E00000200090194841696846884719E01848EA
:1095F0000078002802D11548456801E013488568C5
:109600000022294613480068FFF7A8F90446002CF9
:1096100007D00E488069002803D00C488169204695
:1096200088470AE009484069002806D001200090D8
:10963000064841696846884700BF00200249087013
:1096400038BD00005C20002068200020C0340020CD
:10965000582000206420002010B5002418E00D20C0
:1096600001F060FC04E036480088401C3449088062
:109670003448334A128881180A2001F02FFC002850
:10968000F1D1601C80B20446642801DD002010BDC9
:109690002B480088401E2B49085C3E28DFD1002063
:1096A0002749088000241BE0342001F03BFC0D20FA
:1096B00001F038FC04E022480088401C2049088062
:1096C00020481F4A128881180A2001F007FC002850
:1096D000F1D1601C80B20446642801DD0020D6E789
:1096E00017480088012109038842DDDB0020144966
:1096F000088000241BE0362001F014FC0D2001F04E
:1097000011FC04E00E480088401C0D4908800D48FB
:109710000B4A128881180A2001F0E0FB0028F1D1E1
:10972000601C80B20446642801DD0020AFE70448D5
:109730000088012109038842DDDB0120A7E7000042
:1097400012200020E420002010B514484068C10514
:10975000C90D002920D00A46103A50B200280DDA6F
:109760000E4B1C330407240F083CA408A4001B590B
:109770008407E40EE3401B069B0F0BE0084B032419
:1097800024021B198408A4001B598407E40EE3403B
:109790001B069B0FD8B210BD0420FCE700ED00E0D3
:1097A00000E100E0014614480078144A1278904223
:1097B0001DD011480078401C0F4A107010460078E8
:1097C000022801D1002010700B48007880000C4A5C
:1097D000105808600B4A086812688018094A10601F
:1097E000104600680002000A106001207047002047
:1097F000086000BFFAE70000A4200020A520002098
:109800009C20002098200020F0B50346002426E08C
:10981000164E366824277E43154F3F68F019466878
:109820009E4203D94668F61A46601DE046689B1BB7
:10983000466834190026466006750C4E35680B4F95
:10984000066A3E600669002E08D00E193602360AF6
:1098500086600669C66016680662156000BF034828
:109860000068401C0028D3D100BFF0BD9420002028
:10987000882000203EB500BF684600780109090134
:10988000491C009168460078F02188431030009010
:1098900000BF0A2216A168467CDF044600BF2546A9
:1098A000002D06D000BF15A28A212846FEF746FFEC
:1098B00000BF00BF00200190029010216846818007
:1098C0003C21C18000210181FF219131418101A80A
:1098D0007ADF044600BF2546002D06D000BF07A250
:1098E00094212846FEF72AFF00BF00BF3EBD0000BE
:1098F00043523230305F5541525400002E2E5C2EC0
:109900002E5C6D61696E2E630000000070B58AB038
:10991000C7A1C8A001F082F9C5A1C6A001F07EF9D7
:10992000C3A1C6A001F07AF9C6A1C8A001F076F9DA
:10993000002801D10AB070BDBDA1C7A001F06EF929
:10994000C8A1BDA001F06AF9002805D1C5A1BAA03F
:1099500001F064F900284AD0B5A1C4A001F05EF975
:10996000002844D0C448407D312840D1C248807D81
:1099700035283CDBC048007E30380A214843BE49C8
:10998000497E30394018BC4908760846C07E3038D8
:109990000A214843B849097F30394018B649C8768A
:1099A0000846807F30380A214843B349C97F30399F
:1099B0004018B149887708462030407830380A216D
:1099C0004843AD492031897830394018C1B2AA489E
:1099D00020304170007930380A214843A6492031AF
:1099E000497930394018C1B2A3482030017190A1A3
:1099F000A2A001F013F98EA1A3A001F00FF98CA190
:109A0000A3A001F00BF98AA1A4A001F007F9002896
:109A100000D18FE786A1A5A001F000F984A1ADA037
:109A200001F0FCF882A1AEA001F0F8F8AFA1B0A05F
:109A300001F0F4F87EA1B1A001F0F0F8B3A1B5A057
:109A400001F0ECF8002806D1B0A17BA001F0E6F807
:109A5000002800D16EE776A1B8A001F0DFF8BBA125
:109A6000BBA001F0DBF8BEA1C0A001F0D7F8B7A100
:109A7000B7A001F0D3F8C1A1C2A001F0CFF8B3A103
:109A8000B3A001F0CBF8BDA1C2A001F0C7F8AFA10F
:109A9000AFA001F0C3F8C2A1C4A001F0BFF8002834
:109AA00000D147E7A9A1AAA001F0B8F8B3A1C4A0CA
:109AB00001F0B4F8A5A1A6A001F0B0F8AFA1C8A02C
:109AC00001F0ACF8A1A1A2A001F0A8F8ABA1CBA035
:109AD00001F0A4F8002800D12CE755A1C9A001F09D
:109AE0009DF853A1CDA001F099F8032505E0624847
:109AF000405D69464855681CC5B21B2DF7DB432104
:109B00006846C17652210177322141773021817731
:109B1000C1772020FEF7A0FFC34989684B221201BC
:109B200051430846FF21FEF721FB4100401886B251
:109B30003B2108A801703013FFF748FC014608A834
:109B400041703012FFF742FC014608A881703105D0
:109B5000080EFFF73BFC014608A8C170F0B2FFF702
:109B600035FC08A9087179A179A001F057F8AFA0D8
:109B700001F0C8F8032405E06946085D01F0D2F958
:109B8000601CC4B2252CF7DB29A1ABA001F046F87C
:109B900027A1ABA001F042F86CA16DA001F03EF846
:109BA000002423E0A949085D01F0BCF9A01EA749E3
:109BB000085C362818D1601E085C0D2814D10846B0
:109BC000005D0A2810D11AA171A001F027F85FA149
:109BD0005FA001F023F8002806D15CA15CA001F091
:109BE0001DF8002800D1A5E6601C84B20120000306
:109BF0008442D7DB0EA169A001F010F8002810D034
:109C000052A153A001F00AF800280AD008A190A0A0
:109C100001F004F8002804D005A138A000F0FEFFF0
:109C200000E087E601208C49087000BF82E6000052
:109C30004F4B000041540D0A0000000041544531D3
:109C40000D0A0000524541445900000041542B4385
:109C500050494E3F0D0A000041542B434C54533D94
:109C6000310D0A004453543A0000000041542B4384
:109C7000434C4B3F0D0A0000E430002041542B437D
:109C80004C54533D300D0A00415445300D0A00003C
:109C900061742B6373710D0A0000000061742B6303
:109CA000676174743D310D0A0000000041542B437C
:109CB0004950435347503D312C22636D6E657422E9
:109CC0002C226775657374222C2267756573742264
:109CD0000D0A000061742B435354540D0A00000018
:109CE00041542B43494943520D0A00002E00000005
:109CF00041542B43494653520D0A000041542B4313
:109D00004950434C4F53453D310D0A006373746E07
:109D10006574000041542B43495053544152543D03
:109D200022544350222C223135392E3232362E32F3
:109D300035312E3131222C32350D0A0041542B435E
:109D40004950535052543D310D0A00003E0000006E
:109D500041542B43495053454E440D0A0000000026
:109D6000636F72656D61696C0000000065686C6FFF
:109D70002068656C6F0D0A1A0000000053454E44C0
:109D80000000000061757468206C6F67696E0D0AD1
:109D90001A00000059324E6B59773D3D0D0A1A00EA
:109DA0007375636365737366756C000059324E6B2F
:109DB00059324E7A6447356C64413D3D0D0A1A00B4
:109DC0004D41494C2046524F4D3A3C6C79654063B9
:109DD00073746E65742E636E3E0D0A1A00000000E7
:109DE0005243505420746F3A3C636364634063731E
:109DF000746E65742E636E3E0D0A1A004441544120
:109E00000D0A1A0043523230305F554152543A41E4
:109E1000542B435245473D320D0A000041542B4319
:109E20005245473F0D0A0000007500405375626AB5
:109E30006563743A200000000D0A0D0A1A00000044
:109E400041542B435245473D300D0A00E420002089
:109E50000D0A2E0D0A1A00002E200020F8B5294800
:109E60000078002800D1F8BD27480068002801D1FB
:109E7000012000E00020054624480068002801D1A8
:109E8000012000E00020064600BF002D14D16846E6
:109E900051DF0446052C01D101250CE0002C06D031
:109EA00000BF1BA265212046FEF748FC03E01649CF
:109EB00000980968884700BF002E1AD12248008800
:109EC000009069462148006861DF0446052C01D1F5
:109ED00001260DE0002C06D000BF0DA27C212046FB
:109EE000FEF72CFC04E01948006808490968884717
:109EF00000BF002D02D0002E00D000E0C5E700BF5B
:109F000000BFB0E7B4200020C4200020C020002003
:109F10005254455C6E52465F536F66744465766971
:109F200063655C6E524635313832325F7878414134
:109F30005C736F66746465766963655F68616E649F
:109F40006C65722E63000000BC200020B820002049
:109F500001464888064A1288904206DB4888044A2F
:109F60005288904201DC012070470020FCE700008D
:109F7000502000200C48008CC0B2012812D10A48A1
:109F8000808C0007000F00280CD10748806AF02160
:109F90000840402806D10448C06A0840002801D182
:109FA000012070470020FCE7C00F00F01948008C2A
:109FB000C0B201282CD11748808C0007000F002860
:109FC00026D11448806AF0210840002806D11148A3
:109FD000C06A0840002801D1012070470D48806AFE
:109FE000F0210840102806D10A48C06A084000281D
:109FF00001D10120F1E70748806AF02108403028AC
:10A0000006D10448C06A0840002801D10120E4E7D5
:10A010000020E2E7C00F00F0FEB52B480068019079
:10A020002A480078009040E00098C000284909685C
:10A030004418257835E01820684361680F18681CBB
:10A04000C5B2A078A84200D100253878022802D0F5
:10A05000032823D10EE02421786848431D4909686C
:10A060004618307D002804D0786801F099F8002067
:10A07000307514E00CE01449096824225143154A54
:10A0800012688818002101750F4A016A116000BF2B
:10A090000D480068401C0028EDD100E000BF00BF63
:10A0A00000BF6078A842C6D100BF0098411EC9B267
:10A0B00000910028B8D1044801680198814201D07C
:10A0C0000120FEBD0020FCE7942000208C20002011
:10A0D0009020002088200020FEB5074643480068F5
:10A0E000029043480078019071E00198C000414916
:10A0F0000968451863E0781C002807D03E462420F4
:10A1000070433D4909684418276A29E029781823D3
:10A1100059436A6850182978491C29702978AA7807
:10A12000914201D100212970466824217143324AAD
:10A1300012688C180178012902D1217D002900D0F4
:10A140003DE08168A160C168E16001692161416908
:10A15000E1612A490978002901D00021A16000BFEE
:10A160002749A0680968401A0002000A2549884268
:10A1700008D22349A068096800F036FFE16840185A
:10A18000606011E01E48A168006800F02DFF00909B
:10A19000E1680098814204D9E1680098081A60607B
:10A1A00001E00020606000BF0020A060E0600120AE
:10A1B0002075801E2062304600F084FF00BF781CAE
:10A1C000002898D128786978884294D100BF0198F6
:10A1D000411EC9B20191002887D104480168029844
:10A1E000814201D00120FEBD0020FCE79420002028
:10A1F0008C2000209020002088200020AD2000200E
:10A2000098200020FFFF7F0008B500BF0020704BA2
:10A21000052204210090FEF729FB054600BF2E46CB
:10A22000002E06D000BF6BA26E493046FEF786FABC
:10A2300000BF00BF00BF00BF6B490120FEF794FACA
:10A24000054600BF2E46002E07D000BF61A2B121F7
:10A2500089003046FEF772FA00BF00BF00BFFEF76C
:10A2600067FD624A01216248FEF7C6FA044600BF54
:10A270002546002D07D000BF56A25A49C91D2846C1
:10A28000FEF75CFA00BF00BFFFF7F4FA00F0CCFD68
:10A29000FEF7EAF9FFF75EF9524841300521090758
:10A2A000072212028918C8600320052109078918AE
:10A2B0008864122000F084F9FEF712FA00204D495C
:10A2C00008704D4908700022E121C904484800681F
:10A2D000FEF744FB044600BF2546002D07D000BF13
:10A2E0003CA240492B312846FEF728FA00BF00BFA8
:10A2F00000BF42480078002866D0032000F068F9CB
:10A3000004203F49086001203E49C8630020012322
:10A3100002460146009000F0ABFD3B4838494862D8
:10A32000FFF79AF9044600203649C86334490860AB
:10A33000032000F045F9002C43D0122000F040F932
:10A34000642000F01BF9122000F042F901202D4991
:10A35000C86304202A4908600020172302461821F8
:10A36000009000F085FD294825494862FFF7CEFAA4
:10A3700027A128A000F052FC00280FD026A127A07A
:10A3800000F04CFC002809D021A128A000F046FCD8
:10A39000002803D01EA127A000F040FC1CA129A08A
:10A3A00000F03CFC1AA12BA000F038FC2DA12FA03E
:10A3B00000F034FC00201349C863C863122000F089
:10A3C000FFF800200D49087000F020FB91E7000025
:10A3D000443200202E2E5C2E2E5C6D61696E2E6341
:10A3E00000000000C2020000AC340020BDB6010035
:10A3F0000C200020E4200020142000201020002049
:10A4000000250040C02F00400050270000509D0054
:10A410004F4B00000D0A1A003E00000041542B4330
:10A42000495053454E440D0A000000000D0A2E0D00
:10A430000A1A000041542B434950434C4F53453DA9
:10A44000310D0A0041542B434950534855540D0ACD
:10A450000000000041542B43474154543D300D0A45
:10A4600000000000504F57455200000041542B435C
:10A47000504F57443D310D0A00000000F8B5054625
:10A480000E4614462879801CC7B22078801CC0195B
:10A490001F2801DD0C20F8BD781CC1B22278501CA9
:10A4A0002070B154FF212278501C2070B1542278C2
:10A4B0009119288800F0FEFF217840182070A888A4
:10A4C00000280EDDA868002801D10720E3E7AA884C
:10A4D00023789819A968FDF75FFE2078297940183C
:10A4E00020700020D7E7F7B584B004460F460698E1
:10A4F0000678B01C1F2803DC6078801C1F2802DD52
:10A500000C2007B0F0BD1F20801B801E85B2029575
:10A51000B11C781802A97DDF03900398002801D0B0
:10A520000398EEE72078022808D168460089A842FF
:10A5300004DC09200190684605890BE008200190A1
:10A540006078002804D06078A84201DC657801E0DA
:10A5500068460589681CC2B23046711CCEB23A54B6
:10A560003046721CD6B20199395406980178A81C5D
:10A570000818C1B2069801700020C2E701B505E0D5
:10A580000098401E00900348FDF7A4FD00980028A5
:10A59000F6D108BDE703000010B58A0005231B07AC
:10A5A000072424021B1984001A5110BD032105221F
:10A5B000120707231B02D2188300D15070470000F6
:10A5C00001218140014AD160704700000005005020
:10A5D00001218140014A9160704700000005005050
:10A5E000F7B582B00E461746002517E0705D5C286F
:10A5F00001D1012000E00020691C715C722901D1A9
:10A60000012100E000210840002803D00D21681C32
:10A6100005463154705D00F085FC6D1CBD42E5D3EC
:10A6200000201F49088001900024009030E004E0E1
:10A630001B480088401C1A4908801A48184A12888A
:10A640008118012000F04AFC0028F1D11CE0601CB8
:10A650000199401A87B21348005D0A2806D01048B5
:10A660000088401EA04201D0142F0BD10D4A019842
:10A6700011183A460298FEF72FFB601C80B2019039
:10A6800000200090601C84B2054800888442DEDB14
:10A690000098411C89B200916428C8DB05B0F0BD68
:10A6A00012200020E4200020F8B505462888142850
:10A6B00062D006DC10280BD0112820D0132875D1C9
:10A6C0002CE0172857D0192871D05228F7D13DE037
:10A6D000A8885D4908800320FFF77AFF04205B49C2
:10A6E000086001205A49C863002001230246014640
:10A6F000009000F0BDFB574854494862A2E000209A
:10A700005349C863514908600320FFF759FF0020EF
:10A71000C0434D490880FDF7E3FF93E000204E4918
:10A7200008600B464D4A0021474800887FDF0446F9
:10A7300000BF2746002F07D000BF49A2FF21753177
:10A740003846FDF7FBFF00BF00BF7BE000231A4641
:10A7500019463D480088A9DF044600BF2746002F60
:10A7600007D000BF3EA2FF217A313846FDF7E6FF51
:10A7700000BF00BF66E065E037480068002817D0DA
:10A780003548066800231A4631462F48008882DF84
:10A79000044600BF2746002F07D000BF30A2FF218C
:10A7A00086313846FDF7CAFF00BF15E049E014E0E6
:10A7B00000231A4619462448008882DF044600BF59
:10A7C0002746002F07D000BF25A2FF218C31384635
:10A7D000FDF7B4FF00BF00BF34E0A87900282FD1F7
:10A7E000FEF76CFB044600BF2746002F07D000BFD2
:10A7F0001BA2FF2194313846FDF7A0FF00BF00BF28
:10A800000120FEF705FB044600BF2746002F07D0B6
:10A8100000BF13A2FF2197313846FDF78FFF00BF1D
:10A8200000BF3CDF044600BF2746002F07D000BF13
:10A830000BA2FF219A313846FDF780FF00BF00BF11
:10A8400000E000BF00BFF8BD06200020002500404A
:10A85000C02F004000502700E431002000200020DD
:10A860002E2E5C2E2E5C6D61696E2E630000000042
:10A8700070B505462878002811D13B21084800888A
:10A8800076DF044600BF2646002E07D000BF05A293
:10A89000FF2107313046FDF751FF00BF00BF70BDFB
:10A8A000062000202E2E5C2E2E5C6D61696E2E63BC
:10A8B0000000000010B504460822A11D0248FDF763
:10A8C0006BFCFEF77FFE10BD5C2000208A88828230
:10A8D0007047000010B50446A08809490880082286
:10A8E000214616310748FDF757FC0020064908703D
:10A8F0000648C089002801D1FEF764FE10BD0000A3
:10A900005A2000205C20002058200020C034002065
:10A910000022D2438282704770B505460020C043B2
:10A920000A49088000200A4908700A480068FEF7B2
:10A930004BF80446002C07D007488069002803D054
:10A94000054881692046884770BD00005A200020D4
:10A950005820002064200020C034002070B5044638
:10A960000E46B51D2988208A814213D1288B0228E2
:10A9700010D100BF00BFA97EEA7E12021143084633
:10A98000C107C90F002902D00120A0750FE00020E7
:10A99000A0750CE02888A188884208D1A069002809
:10A9A00005D02A8B29461A312046A369984770BDE5
:10A9B00070B50546AC1D20881249C989884220D14E
:10A9C000208B02281DD100BF00BFA17EE27E1202B3
:10A9D00011430846C107C90F002902D0FEF7F2FD56
:10A9E0000FE009480068FDF7EFFF0646002E07D08C
:10A9F00004488069002803D00248816930468847AE
:10AA000000BF70BDC03400206420002070B548DF56
:10AA1000044600BF2546002D07D000BF04A2FF2139
:10AA2000D2312846FDF78AFE00BF00BF70BD00008E
:10AA30002E2E5C2E2E5C6D61696E2E630000000070
:10AA400001484068704700000015014010B50446F9
:10AA50000348846003211120FDF79CFC10BD000019
:10AA60000015014010B5012000040A494860094959
:10AA7000403948601120FDF733FC1120FDF73AFC06
:10AA80000120054908602F20FDF744FB0120034900
:10AA9000087010BD4013014000100140AC200020A0
:10AAA00010B51120012181400E4A116000BF012024
:10AAB00000040D4988600C494039886001200B4929
:10AAC00048602F20FDF726FB012008498860002000
:10AAD000074908602F20FDF71DFB0020054908707D
:10AAE00010BD000080E100E0401301400010014073
:10AAF00098200020AC20002030B58FB004460D46D1
:10AB00000020079000BF6846007F01090901491C29
:10AB100068460177007FF021884310306946087746
:10AB200000BF00BF6846407F01090901491C684613
:10AB30004177407FF021884310306946487700BF55
:10AB40006846807F06218843811C684681771C21E6
:10AB500008A8FDF73AFB08A800781021884341189F
:10AB600008A80170002009900B900C9007A80D9088
:10AB700000200E9021786846817103218180002099
:10AB8000009000BF6846007801090901491C684629
:10AB900001700078F021884310306946087000BFCA
:10ABA00000BF6846407801090901491C68464170A8
:10ABB0004078F021884310306946487000BF6846ED
:10ABC000807806218843811C68468170807808213E
:10ABD0008843014668468170807810218843014689
:10ABE00068468170807841084900491C6846817038
:10ABF000142102A8FDF7E9FA01A802906846039023
:10AC00000121018200214182142181826088234632
:10AC10000C3302AA08A9A2DF0FB030BDF3B581B092
:10AC2000074600200090002501E0681CC5B202988C
:10AC3000405D0028F9D1681EC5B200262C4600BF31
:10AC40002E49012000F04AF90028F9D1FF210131F5
:10AC50002A48FDF7BAFA03E038787F1C00F062F961
:10AC600038780028F8D12CE0032C15DD201F23496B
:10AC7000085C452810D1E01E085C52280CD1A01EAB
:10AC8000085C522808D1601E085C4F2804D1084691
:10AC9000005D522800D11BE000260AE00298805D8A
:10ACA000611B8919154A515C884200D003E0701C71
:10ACB000C6B2AE42F2DB00BFAE4200D108E0601C7B
:10ACC000C4B20E4801190E4800F008F90028CBD193
:10ACD00000BFAE420DD10120009000BF2046621C93
:10ACE000D4B2064A8118012000F0F8F80028F5D106
:10ACF00001E0002000900098FEBD0000E43000203C
:10AD00001027000010B5044603E02078641C00F012
:10AD100009F920780028F8D110BDF0B502460C469C
:10AD2000002037E001238340194623460B40002BC7
:10AD30002FD0D5680D40002D05D101235B04D568C7
:10AD40000D43D56004E003231B04D5688D43D56013
:10AD500005252D0707263602AD198600AD590326B5
:10AD60003604B5430526360707273F02F619870044
:10AD7000F55105252D0707263602AD198600AD5978
:10AD80001D430526360707273F02F6198700F551B0
:10AD900000BF401C2028C5D3F0BDFEB507460E46B7
:10ADA0001446B86A002801D10720FEBD002001909A
:10ADB00032E0B96A0C22019850430D182879801CA2
:10ADC000C0B200900098401CC1B22278501C207084
:10ADD000B15416212278501C2070B1542278911958
:10ADE000288800F067FB217840182070A888002888
:10ADF0000EDDA868002801D10720D6E7AA882378AD
:10AE00009819A968FDF7C8F92078297940182070A9
:10AE10000198401CC0B201902C20C15D0198814274
:10AE2000C7DC0020C1E7000038B5002000900A48C8
:10AE3000009069460948FDF7E9FE044600BF254633
:10AE4000002D06D000BF06A2E3212846FDF776FCC0
:10AE500000BF00BF38BD0000E1A50100C8200020F0
:10AE60002E2E5C2E2E5C6D61696E2E63000000003C
:10AE7000F8B507460C4615461E462046FFF796FBDA
:10AE800000213046FFF788FB1048C46046610698F1
:10AE900000280DD03846FFF789FB00212846FFF730
:10AEA0007BFB0A4805618760012008494031C86280
:10AEB0000748064948620420086001200549886067
:10AEC0000860002004498860F8BD000000250040AB
:10AED00000502700002000400021004070B50446CB
:10AEE0000D4601260AE02046641E002804DB7D2072
:10AEF000C000FDF7FFF801E0002603E00748806886
:10AF00000128F0D100BF002C05DB00200349886038
:10AF1000034880692870304670BD00000021004061
:10AF2000002500400549C86100BF0549C9690129DC
:10AF3000FBD10021024AD16170470000002500408A
:10AF40000021004070B506460C46154629462046AD
:10AF5000C046C04670BD00000146002901D10E2048
:10AF60007047024801600020FAE70000C02000207E
:10AF7000FFB581B00C4616461F46002C02D10720B3
:10AF800005B0F0BD20468107890F002901D10121BC
:10AF900000E00021002901D10720F1E70948046001
:10AFA00009480680094807600949019810DF0546ED
:10AFB000002D01D02846E3E701200649087016203D
:10AFC0002EDFDDE7B8200020BC200020B0200020CC
:10AFD00045AF0100B42000200146C878002801D008
:10AFE000072070470020FCE70246501A0002000AC2
:10AFF0007047000070B504460D480068002813D063
:10B000000B4AE169A06912689047054600BF2E46C9
:10B01000002E07D000BF07A2FF2167313046FDF7A1
:10B020008DFB00BF00BF02E0A169E069884770BDE9
:10B03000A82000205254455C6E52465F4C696272F3
:10B0400061726965735C6E524635313832325F78B1
:10B050007841415C6170705F74696D65722E630048
:10B06000FEB50020C04301901048046810480768EE
:10B070006846FEF797FB0546FEF7CEFF0646002D15
:10B0800005D001AA21460098FEF7BEFB01260198D3
:10B09000FFF722F8002800D00126002E02D0384603
:10B0A000FEF7A0F9002003490870FEBD982000209B
:10B0B00094200020AD20002010B51420FDF724F9C5
:10B0C00010BD0000F0B5024624205043324B1B68EF
:10B0D000C11832480068401C002802D12F48026085
:10B0E00059E02E484B680068242460432A4C2468A9
:10B0F00000194068834217D8284800682423584321
:10B10000254B1B68C01840684B68C31A2348006869
:10B1100024246043204C2468001943601F480068C1
:10B1200008621E48026036E04B681C4D2C68286897
:10B130000DE024254543184E3668AD196D685B1B3C
:10B14000044624254543144E3668AD19286A451C2B
:10B15000002D07D0242545430F4E3668AD196D6884
:10B160009D42E6D3451C002D0CD0242545430A4EB4
:10B170003668AD196D68EE1A24254543064F3F68C1
:10B18000ED196E604B60086224256543024E3668F7
:10B19000AD192A6200BFF0BD882000209420002055
:10B1A00070B502462C4C2168084609E0904200D157
:10B1B00009E0014624244443284D2D686419206A7F
:10B1C000441C002CF2D100BF441C002C00D170BDE7
:10B1D000814217D1204C246824256C431F4D2D68D3
:10B1E0006419246A1C4D2C602C462468641C002CB5
:10B1F00008D101241A4DAC6000241A4D2C600124A2
:10B20000194D2C7024244443144D2D68641963682F
:10B2100024244443114D2D686419256A24244C4389
:10B220000E4E3668A419256224244C430B4D2D681C
:10B230006419206A441C002C0CD024244443074D7C
:10B240002D6864196468E51824244443034E366865
:10B25000A419656000BFBAE7942000208820002070
:10B260000010014098200020AD200020FFB581B0E3
:10B2700005460E461746E900104A126888186946C6
:10B2800000F081F90446002C02D1042005B0F0BD85
:10B29000012020706660FFF7D3FBA060E760049890
:10B2A00020610A986061E900044A126888180099D0
:10B2B00000F07FF9FFF700FF0020E7E79020002073
:10B2C000F8B504460E46E1000C4A12688818694633
:10B2D00000F059F90546002D01D10420F8BD0220E7
:10B2E00028706E60E100054A12688818009900F025
:10B2F00060F9FFF7E1FE0020F0E700009020002059
:10B30000F8B520480068401C00283AD00027FFF715
:10B3100097FB04461C4801682046FFF765FE064679
:10B320001848056811E02420684318490968441842
:10B330006068B04200D90BE06068361A6068C719CF
:10B34000256A2046FFF756FE00BF681C0028EAD198
:10B3500000BF0F4800780F490978884209D10D488D
:10B360000078401CC0B20B490870022801D10020AF
:10B37000087008480078800007490F50FFF79CFECE
:10B3800000BFF8BD942000209820002088200020D5
:10B39000A4200020A52000209C20002010B5112012
:10B3A000FCF7B2FF10BD30B58FB004460D461C212E
:10B3B00008A8FCF70AFF08A800780821884341186C
:10B3C00008A80170007804218843011D08A80170B5
:10B3D000002009900B900C900D900E9021786846FB
:10B3E0008172022101810020019000BF684600792E
:10B3F00001090901491C684601710079F02188435F
:10B4000010306946087100BF00BF684640790109E5
:10B410000901491C684641714079F0218843103088
:10B420006946487100BF6846807906218843811CBF
:10B430006846817180790821884301466846817198
:10B4400080791021884301466846817180794108DE
:10B450004900491C68468171142103A8FCF7B5FE18
:10B4600002A8039001A8049001216846818200216E
:10B47000C182142101836088231D03AA08A9A2DFC9
:10B480000FB030BD30B503461078C01C1F2801DD59
:10B490000C2030BD02241578681C10704C550A240D
:10B4A0001578681C10704C551578681C10704B5539
:10B4B0000020EEE702460A70FF2000021040001252
:10B4C000487002207047000038B5054620480088C3
:10B4D000204988423BD020480078401C1E49087013
:10B4E0001E48007B097888420FDB1D4918480088F8
:10B4F00075DF0446002C07D018488069002803D067
:10B50000164881692046884721E0002012490870CA
:10B510001248007C00280FD03B210D48008876DFC0
:10B520000446002C07D00D488069002803D00B4842
:10B5300081692046884700BF08484069002806D036
:10B5400000200090054841696846884700BF38BD23
:10B550005A200020FFFF000058200020C0340020A7
:10B560005020002010B5FEF7EFF8012802D0032884
:10B5700004D101E0002403E0012401E0022400BF23
:10B5800000BF204610BD70B502460B465078411CE6
:10B590009078884200D100211078884201D10020A3
:10B5A00070BD196050781826704355682C182046D5
:10B5B000F6E741707047FFB581B0074615460A9E11
:10B5C000009602223846049B029900F014F80446C3
:10B5D000002C02D0204605B0F0BD0096102229466E
:10B5E0003846049B00F007F80446002C01D02046A2
:10B5F000F1E70020EFE7FFB587B006461D46109C37
:10B600000020069020780590002747E0B900706878
:10B6100041180A886846028149884181002203A9AD
:10B6200002A865DF04900498002802D004980BB0AB
:10B63000F0BD6846017B099881422ED1069800280A
:10B6400001D0002000E00220019020786946097BAB
:10B650004118019808181F2801DD0C20E7E706981B
:10B66000002809D12078401C20702278511C0898AD
:10B670002170A854012006902078421903A902A83D
:10B6800065DF04900498002801D00498CFE7207863
:10B690006946097B4018207000BF7F1C3088B84283
:10B6A000B4DC0698002806D021780598401C081ABA
:10B6B000C1B2059829540020B9E700000A49096879
:10B6C000491C094A1160002906D00121074A11705E
:10B6D0000021054A116006E005490978002902D1D8
:10B6E0000121024A1170704708200020102000201C
:10B6F0002E200020010000001100000012000000B8
:10B70000130000001400000011000300C58D0100AB
:10B7100012000300C58D010013000300C58D010058
:10B7200014000300C58D01009ECADC240EE5A9E0CB
:10B7300093F3A3B50000406E58B70100002000202D
:10B74000C80000000085010020B80100C8200020CA
:10B75000181C000010850100000000000000FFFF21
:10B7600000000000000000000000000001000000D8
:10B770001F003B005A0078009700B500D400F3008A
:10B78000110130014E010100000000000000000026
:10B7900000000000000000000000000000000000A9
:10B7A000000000000024F400000000000000000081
:10B7B0000000000000000000000000000000000089
:10B7C0000000000000000000000000000000000079
:10B7D0000000000000000000000000000000000069
:10B7E0000000000000000000000000000000000059
:10B7F0000000000000000000000000000000000049
:10B800000000000000000000000000000000000038
:10B810000000000000000000000000000000000028
:04000005000180C1B5
:00000001FF
